{
  "transactions": [
    {
      "hash": "0x453c074acc798c175c67d2ced391b4d80ebe84825a69b39f5ce80f3cd9099809",
      "transactionType": "CALL",
      "contractName": null,
      "contractAddress": "0xda0b955259feb479d58a652fa8ffe43b2e973f75",
      "function": "finalizeEpoch(bytes32)",
      "arguments": [
        "0x9a38fc156c7fb90ff9c89bad58a0b7fa375caed735aba55e03d1335f9e88e9f5"
      ],
      "transaction": {
        "from": "0x59ff2fdaa71606e4eb63050454ab9d8a418fcaf6",
        "to": "0xda0b955259feb479d58a652fa8ffe43b2e973f75",
        "gas": "0x22fe0",
        "value": "0x0",
        "input": "0x008f6b349a38fc156c7fb90ff9c89bad58a0b7fa375caed735aba55e03d1335f9e88e9f5",
        "nonce": "0x34",
        "chainId": "0x2105"
      },
      "additionalContracts": [],
      "isFixedGasLimit": false
    }
  ],
  "receipts": [
    {
      "status": "0x1",
      "cumulativeGasUsed": "0x13d83e4",
      "logs": [
        {
          "address": "0xda0b955259feb479d58a652fa8ffe43b2e973f75",
          "topics": [
            "0xf909e39b2115dc779ed6294b0ed21433dc4aafba6e247f652ec203f261dd5237",
            "0x0000000000000000000000000000000000000000000000000000000000000005"
          ],
          "data": "0x9a38fc156c7fb90ff9c89bad58a0b7fa375caed735aba55e03d1335f9e88e9f50000000000000000000000000000000000000000000000000000000069c982e3",
          "blockHash": "0x0000000000000000000000000000000000000000000000000000000000000000",
          "blockNumber": "0x29f9300",
          "blockTimestamp": "0x69c982e3",
          "transactionHash": "0x453c074acc798c175c67d2ced391b4d80ebe84825a69b39f5ce80f3cd9099809",
          "transactionIndex": "0x49",
          "logIndex": "0x2d6",
          "removed": false
        }
      ],
      "logsBloom": "0x00000000000000000000000000000000000000000000000000000000000000000000000000000000000000000000000000002000000000000000000000000000000010000000000000000000000000000000000000000000000000000000000000000000000000000000080000000000000000000000000000000000000010000000000000000000000000000000001000000800000000000000000000000000000000000000000000000000000000000000000000100000000000000000000000000000000000000000000000000000000000000000000000000000000000000000000000000100000000000000000000000000000000000000040000000000",
      "type": "0x2",
      "transactionHash": "0x453c074acc798c175c67d2ced391b4d80ebe84825a69b39f5ce80f3cd9099809",
      "transactionIndex": "0x49",
      "blockHash": "0x0000000000000000000000000000000000000000000000000000000000000000",
      "blockNumber": "0x29f9300",
      "gasUsed": "0x17ed3",
      "effectiveGasPrice": "0x4c4b41",
      "blobGasUsed": "0x39d0",
      "from": "0x59ff2fdaa71606e4eb63050454ab9d8a418fcaf6",
      "to": "0xda0b955259feb479d58a652fa8ffe43b2e973f75",
      "contractAddress": null,
      "daFootprintGasScalar": "0x94",
      "l1BaseFeeScalar": "0x8dd",
      "l1BlobBaseFee": "0x4b5cef",
      "l1BlobBaseFeeScalar": "0x101c12",
      "l1Fee": "0x3716cdcc",
      "l1GasPrice": "0x4c4bacd",
      "l1GasUsed": "0x640"
    }
  ],
  "libraries": [],
  "pending": [],
  "returns": {},
  "timestamp": 1774813920908,
  "chain": 8453,
  "commit": "7dc1d30a"
}