{
  "transactions": [
    {
      "hash": "0x30d4f8ee8fa9e62c103b9f7cfb8d5d4bd375d5f18e61e2d197afd2e56e6f54e3",
      "transactionType": "CALL",
      "contractName": null,
      "contractAddress": "0xda0b955259feb479d58a652fa8ffe43b2e973f75",
      "function": "finalizeEpoch(bytes32)",
      "arguments": [
        "0x795c9d8424db18226830a9dbb88956c657d32a08bb02d0bd9b9bd9b0b8aafcd8"
      ],
      "transaction": {
        "from": "0x59ff2fdaa71606e4eb63050454ab9d8a418fcaf6",
        "to": "0xda0b955259feb479d58a652fa8ffe43b2e973f75",
        "gas": "0x26d08",
        "value": "0x0",
        "input": "0x008f6b34795c9d8424db18226830a9dbb88956c657d32a08bb02d0bd9b9bd9b0b8aafcd8",
        "nonce": "0x2f",
        "chainId": "0x2105"
      },
      "additionalContracts": [],
      "isFixedGasLimit": false
    }
  ],
  "receipts": [
    {
      "status": "0x1",
      "cumulativeGasUsed": "0x1e505ce",
      "logs": [
        {
          "address": "0xda0b955259feb479d58a652fa8ffe43b2e973f75",
          "topics": [
            "0xf909e39b2115dc779ed6294b0ed21433dc4aafba6e247f652ec203f261dd5237",
            "0x0000000000000000000000000000000000000000000000000000000000000000"
          ],
          "data": "0x795c9d8424db18226830a9dbb88956c657d32a08bb02d0bd9b9bd9b0b8aafcd80000000000000000000000000000000000000000000000000000000069c97357",
          "blockHash": "0x0000000000000000000000000000000000000000000000000000000000000000",
          "blockNumber": "0x29f8b3a",
          "blockTimestamp": "0x69c97357",
          "transactionHash": "0x30d4f8ee8fa9e62c103b9f7cfb8d5d4bd375d5f18e61e2d197afd2e56e6f54e3",
          "transactionIndex": "0x6f",
          "logIndex": "0x2e4",
          "removed": false
        }
      ],
      "logsBloom": "0x00000000000000000000000000000000000000000000000000000000000000000000000000000000000000000000000000002000000000000000000000000000000000000000000000000000000000000000000000000000000000000000000000000000020000000000080000000800000000000000000000000000000010000000000000000000000000000000000000000000000000000000000000000000000000000000000000000000000000000000000000100000000000000000000000000000000000000000000000000000000000000000000000000000000020000000000000000100000000000000000000000000000000000000040000000000",
      "type": "0x2",
      "transactionHash": "0x30d4f8ee8fa9e62c103b9f7cfb8d5d4bd375d5f18e61e2d197afd2e56e6f54e3",
      "transactionIndex": "0x6f",
      "blockHash": "0x0000000000000000000000000000000000000000000000000000000000000000",
      "blockNumber": "0x29f8b3a",
      "gasUsed": "0x1c19f",
      "effectiveGasPrice": "0x4c4b7f",
      "blobGasUsed": "0x39d0",
      "from": "0x59ff2fdaa71606e4eb63050454ab9d8a418fcaf6",
      "to": "0xda0b955259feb479d58a652fa8ffe43b2e973f75",
      "contractAddress": null,
      "daFootprintGasScalar": "0x94",
      "l1BaseFeeScalar": "0x8dd",
      "l1BlobBaseFee": "0x691ed9",
      "l1BlobBaseFeeScalar": "0x101c12",
      "l1Fee": "0x6aefba1d",
      "l1GasPrice": "0x8a3dc4b",
      "l1GasUsed": "0x640"
    }
  ],
  "libraries": [],
  "pending": [],
  "returns": {},
  "timestamp": 1774809941608,
  "chain": 8453,
  "commit": "7dc1d30a"
}