{
  "transactions": [
    {
      "hash": "0x0182ca52e59cfb1da3710d00852cb702eeb2aca45819468b72d80d1b2ba2c291",
      "transactionType": "CALL",
      "contractName": null,
      "contractAddress": "0xda0b955259feb479d58a652fa8ffe43b2e973f75",
      "function": "finalizeEpoch(bytes32)",
      "arguments": [
        "0x795c9d8424db18226830a9dbb88956c657d32a08bb02d0bd9b9bd9b0b8aafcd8"
      ],
      "transaction": {
        "from": "0x59ff2fdaa71606e4eb63050454ab9d8a418fcaf6",
        "to": "0xda0b955259feb479d58a652fa8ffe43b2e973f75",
        "gas": "0x22fe0",
        "value": "0x0",
        "input": "0x008f6b34795c9d8424db18226830a9dbb88956c657d32a08bb02d0bd9b9bd9b0b8aafcd8",
        "nonce": "0x31",
        "chainId": "0x2105"
      },
      "additionalContracts": [],
      "isFixedGasLimit": false
    }
  ],
  "receipts": [
    {
      "status": "0x1",
      "cumulativeGasUsed": "0x15b1ebc",
      "logs": [
        {
          "address": "0xda0b955259feb479d58a652fa8ffe43b2e973f75",
          "topics": [
            "0xf909e39b2115dc779ed6294b0ed21433dc4aafba6e247f652ec203f261dd5237",
            "0x0000000000000000000000000000000000000000000000000000000000000002"
          ],
          "data": "0x795c9d8424db18226830a9dbb88956c657d32a08bb02d0bd9b9bd9b0b8aafcd80000000000000000000000000000000000000000000000000000000069c979b1",
          "blockHash": "0x0000000000000000000000000000000000000000000000000000000000000000",
          "blockNumber": "0x29f8e67",
          "blockTimestamp": "0x69c979b1",
          "transactionHash": "0x0182ca52e59cfb1da3710d00852cb702eeb2aca45819468b72d80d1b2ba2c291",
          "transactionIndex": "0x6d",
          "logIndex": "0x2a4",
          "removed": false
        }
      ],
      "logsBloom": "0x04000000000000000000000000000000000000000000000000000000000000000000000000000000000000000000000000002000000000000000000000000000000000000000000000000000000000000000000000000000000000000000000000000000000000000000080000000000000000000000000000000000000010000000000000000000000000000000000000000000000000000000000000000000000000000000000000000100000000000000000000100000000000000000000000000000000000000000000000000000000000000000000000000000000000000000000000000100000000000000000000000000008000000000040000000000",
      "type": "0x2",
      "transactionHash": "0x0182ca52e59cfb1da3710d00852cb702eeb2aca45819468b72d80d1b2ba2c291",
      "transactionIndex": "0x6d",
      "blockHash": "0x0000000000000000000000000000000000000000000000000000000000000000",
      "blockNumber": "0x29f8e67",
      "gasUsed": "0x17ed3",
      "effectiveGasPrice": "0x4c4b41",
      "blobGasUsed": "0x39d0",
      "from": "0x59ff2fdaa71606e4eb63050454ab9d8a418fcaf6",
      "to": "0xda0b955259feb479d58a652fa8ffe43b2e973f75",
      "contractAddress": null,
      "daFootprintGasScalar": "0x94",
      "l1BaseFeeScalar": "0x8dd",
      "l1BlobBaseFee": "0x5fbd2f",
      "l1BlobBaseFeeScalar": "0x101c12",
      "l1Fee": "0x4fad9ae8",
      "l1GasPrice": "0x64339f8",
      "l1GasUsed": "0x640"
    }
  ],
  "libraries": [],
  "pending": [],
  "returns": {},
  "timestamp": 1774811567615,
  "chain": 8453,
  "commit": "7dc1d30a"
}