{
  "transactions": [
    {
      "hash": "0x6fd55824149d6ad6df62e8b59e9b4d951944ac9c850176a93e5fa3b2cbaa5eba",
      "transactionType": "CALL",
      "contractName": null,
      "contractAddress": "0xda0b955259feb479d58a652fa8ffe43b2e973f75",
      "function": "finalizeEpoch(bytes32)",
      "arguments": [
        "0x084f866a7552de55495007314a8a7815d4c0ce584cb4b4e7616ac96ffbc4ef93"
      ],
      "transaction": {
        "from": "0x59ff2fdaa71606e4eb63050454ab9d8a418fcaf6",
        "to": "0xda0b955259feb479d58a652fa8ffe43b2e973f75",
        "gas": "0x22fe0",
        "value": "0x0",
        "input": "0x008f6b34084f866a7552de55495007314a8a7815d4c0ce584cb4b4e7616ac96ffbc4ef93",
        "nonce": "0x37",
        "chainId": "0x2105"
      },
      "additionalContracts": [],
      "isFixedGasLimit": false
    }
  ],
  "receipts": [
    {
      "status": "0x1",
      "cumulativeGasUsed": "0x46018be",
      "logs": [
        {
          "address": "0xda0b955259feb479d58a652fa8ffe43b2e973f75",
          "topics": [
            "0xf909e39b2115dc779ed6294b0ed21433dc4aafba6e247f652ec203f261dd5237",
            "0x0000000000000000000000000000000000000000000000000000000000000007"
          ],
          "data": "0x084f866a7552de55495007314a8a7815d4c0ce584cb4b4e7616ac96ffbc4ef930000000000000000000000000000000000000000000000000000000069cd5731",
          "blockHash": "0x0000000000000000000000000000000000000000000000000000000000000000",
          "blockNumber": "0x2a17d27",
          "blockTimestamp": "0x69cd5731",
          "transactionHash": "0x6fd55824149d6ad6df62e8b59e9b4d951944ac9c850176a93e5fa3b2cbaa5eba",
          "transactionIndex": "0x166",
          "logIndex": "0x41e",
          "removed": false
        }
      ],
      "logsBloom": "0x00000000000000000000000000000000000000000000000000000000000000000000000000000000000000000000000000003000000000000000000000000000000020000000000000000000000000000000000000000000000000000000000000000000000000000000080000000000000000000000000000000000000010000000000000000000000000000000000000000000000000000000000000000000000000000000000000000000000000000000000000100000000000000000000000000000000000000000000000000000000000000000000000000100000000000000000000000100000000000000000000000000000000000000040000000000",
      "type": "0x2",
      "transactionHash": "0x6fd55824149d6ad6df62e8b59e9b4d951944ac9c850176a93e5fa3b2cbaa5eba",
      "transactionIndex": "0x166",
      "blockHash": "0x0000000000000000000000000000000000000000000000000000000000000000",
      "blockNumber": "0x2a17d27",
      "gasUsed": "0x17ed3",
      "effectiveGasPrice": "0x4c4b7f",
      "blobGasUsed": "0x39d0",
      "from": "0x59ff2fdaa71606e4eb63050454ab9d8a418fcaf6",
      "to": "0xda0b955259feb479d58a652fa8ffe43b2e973f75",
      "contractAddress": null,
      "daFootprintGasScalar": "0x94",
      "l1BaseFeeScalar": "0x8dd",
      "l1BlobBaseFee": "0xaa364a",
      "l1BlobBaseFeeScalar": "0x101c12",
      "l1Fee": "0xebb4cd62",
      "l1GasPrice": "0xc551acc",
      "l1GasUsed": "0x640"
    }
  ],
  "libraries": [],
  "pending": [],
  "returns": {},
  "timestamp": 1775064879695,
  "chain": 8453,
  "commit": "7dc1d30a"
}