{
  "transactions": [
    {
      "hash": "0x00e88facd1665a80ecd6f2e73bca4ab5aeb9b68438c7105780a2944dc8107276",
      "transactionType": "CALL",
      "contractName": null,
      "contractAddress": "0xda0b955259feb479d58a652fa8ffe43b2e973f75",
      "function": "finalizeEpoch(bytes32)",
      "arguments": [
        "0x22a1f9bb4a1a0f756fcc0c6eca6a08fee2d98d8c67d7c36f1d5a29ca36ec19df"
      ],
      "transaction": {
        "from": "0x59ff2fdaa71606e4eb63050454ab9d8a418fcaf6",
        "to": "0xda0b955259feb479d58a652fa8ffe43b2e973f75",
        "gas": "0x22fe0",
        "value": "0x0",
        "input": "0x008f6b3422a1f9bb4a1a0f756fcc0c6eca6a08fee2d98d8c67d7c36f1d5a29ca36ec19df",
        "nonce": "0x32",
        "chainId": "0x2105"
      },
      "additionalContracts": [],
      "isFixedGasLimit": false
    }
  ],
  "receipts": [
    {
      "status": "0x1",
      "cumulativeGasUsed": "0x105d64f",
      "logs": [
        {
          "address": "0xda0b955259feb479d58a652fa8ffe43b2e973f75",
          "topics": [
            "0xf909e39b2115dc779ed6294b0ed21433dc4aafba6e247f652ec203f261dd5237",
            "0x0000000000000000000000000000000000000000000000000000000000000003"
          ],
          "data": "0x22a1f9bb4a1a0f756fcc0c6eca6a08fee2d98d8c67d7c36f1d5a29ca36ec19df0000000000000000000000000000000000000000000000000000000069c97f35",
          "blockHash": "0x0000000000000000000000000000000000000000000000000000000000000000",
          "blockNumber": "0x29f9129",
          "blockTimestamp": "0x69c97f35",
          "transactionHash": "0x00e88facd1665a80ecd6f2e73bca4ab5aeb9b68438c7105780a2944dc8107276",
          "transactionIndex": "0x44",
          "logIndex": "0x1d8",
          "removed": false
        }
      ],
      "logsBloom": "0x00000000000000000000000000000000000000000000000000000000000000000000000000000000000000000000000000002000020000000000000000000000000000000000000000000000000000000000000000000000000000000000000000000000000000000000080000000000000000000000000000000000000010000000000000000000000000000000000000000000000000000000000000000000000000000000000000000000000000000000000000900000000000000000400000000000000000000000000000000000000000000000000000000000000000000000000000000100000000000000000000000000000000000000040000000000",
      "type": "0x2",
      "transactionHash": "0x00e88facd1665a80ecd6f2e73bca4ab5aeb9b68438c7105780a2944dc8107276",
      "transactionIndex": "0x44",
      "blockHash": "0x0000000000000000000000000000000000000000000000000000000000000000",
      "blockNumber": "0x29f9129",
      "gasUsed": "0x17ed3",
      "effectiveGasPrice": "0x4c4b41",
      "blobGasUsed": "0x39d0",
      "from": "0x59ff2fdaa71606e4eb63050454ab9d8a418fcaf6",
      "to": "0xda0b955259feb479d58a652fa8ffe43b2e973f75",
      "contractAddress": null,
      "daFootprintGasScalar": "0x94",
      "l1BaseFeeScalar": "0x8dd",
      "l1BlobBaseFee": "0x50e979",
      "l1BlobBaseFeeScalar": "0x101c12",
      "l1Fee": "0x7052b9c6",
      "l1GasPrice": "0x7766892",
      "l1GasUsed": "0x640"
    }
  ],
  "libraries": [],
  "pending": [],
  "returns": {},
  "timestamp": 1774812979030,
  "chain": 8453,
  "commit": "7dc1d30a"
}